{
  "_format": "hh-sol-artifact-1",
  "contractName": "Vault",
  "sourceName": "contracts/Vault.sol",
  "abi": [
    {
      "anonymous": false,
      "inputs": [
        {
          "indexed": true,
          "internalType": "address",
          "name": "previousOwner",
          "type": "address"
        },
        {
          "indexed": true,
          "internalType": "address",
          "name": "newOwner",
          "type": "address"
        }
      ],
      "name": "OwnershipTransferred",
      "type": "event"
    },
    {
      "inputs": [],
      "name": "owner",
      "outputs": [
        {
          "internalType": "address",
          "name": "",
          "type": "address"
        }
      ],
      "stateMutability": "view",
      "type": "function"
    },
    {
      "inputs": [],
      "name": "renounceOwnership",
      "outputs": [],
      "stateMutability": "nonpayable",
      "type": "function"
    },
    {
      "inputs": [
        {
          "internalType": "address",
          "name": "newOwner",
          "type": "address"
        }
      ],
      "name": "transferOwnership",
      "outputs": [],
      "stateMutability": "nonpayable",
      "type": "function"
    },
    {
      "inputs": [
        {
          "internalType": "address",
          "name": "_tokenAddr",
          "type": "address"
        },
        {
          "internalType": "address[]",
          "name": "dests",
          "type": "address[]"
        },
        {
          "internalType": "uint256[]",
          "name": "values",
          "type": "uint256[]"
        }
      ],
      "name": "withdraw",
      "outputs": [
        {
          "internalType": "uint256",
          "name": "",
          "type": "uint256"
        }
      ],
      "stateMutability": "nonpayable",
      "type": "function"
    }
  ],
  "bytecode": "0x608060405234801561001057600080fd5b5061002d61002261003260201b60201c565b61003a60201b60201c565b6100fe565b600033905090565b60008060009054906101000a900473ffffffffffffffffffffffffffffffffffffffff169050816000806101000a81548173ffffffffffffffffffffffffffffffffffffffff021916908373ffffffffffffffffffffffffffffffffffffffff1602179055508173ffffffffffffffffffffffffffffffffffffffff168173ffffffffffffffffffffffffffffffffffffffff167f8be0079c531659141344cd1fd0a4f28419497f9722a3daafe3b4186f6b6457e060405160405180910390a35050565b610aff8061010d6000396000f3fe608060405234801561001057600080fd5b506004361061004c5760003560e01c8063715018a6146100515780638da5cb5b1461005b578063edbd766814610079578063f2fde38b146100a9575b600080fd5b6100596100c5565b005b61006361014d565b6040516100709190610793565b60405180910390f35b610093600480360381019061008e9190610687565b610176565b6040516100a09190610825565b60405180910390f35b6100c360048036038101906100be919061065e565b61032f565b005b6100cd610427565b73ffffffffffffffffffffffffffffffffffffffff166100eb61014d565b73ffffffffffffffffffffffffffffffffffffffff1614610141576040517f08c379a000000000000000000000000000000000000000000000000000000000815260040161013890610805565b60405180910390fd5b61014b600061042f565b565b60008060009054906101000a900473ffffffffffffffffffffffffffffffffffffffff16905090565b6000610180610427565b73ffffffffffffffffffffffffffffffffffffffff1661019e61014d565b73ffffffffffffffffffffffffffffffffffffffff16146101f4576040517f08c379a00000000000000000000000000000000000000000000000000000000081526004016101eb90610805565b60405180910390fd5b60005b8351811015610324578473ffffffffffffffffffffffffffffffffffffffff166323b872dd33868481518110610256577f4e487b7100000000000000000000000000000000000000000000000000000000600052603260045260246000fd5b6020026020010151868581518110610297577f4e487b7100000000000000000000000000000000000000000000000000000000600052603260045260246000fd5b60200260200101516040518463ffffffff1660e01b81526004016102bd939291906107ae565b602060405180830381600087803b1580156102d757600080fd5b505af11580156102eb573d6000803e3d6000fd5b505050506040513d601f19601f8201168201806040525081019061030f9190610706565b5060018161031d91906108ce565b90506101f7565b809150509392505050565b610337610427565b73ffffffffffffffffffffffffffffffffffffffff1661035561014d565b73ffffffffffffffffffffffffffffffffffffffff16146103ab576040517f08c379a00000000000000000000000000000000000000000000000000000000081526004016103a290610805565b60405180910390fd5b600073ffffffffffffffffffffffffffffffffffffffff168173ffffffffffffffffffffffffffffffffffffffff16141561041b576040517f08c379a0000000000000000000000000000000000000000000000000000000008152600401610412906107e5565b60405180910390fd5b6104248161042f565b50565b600033905090565b60008060009054906101000a900473ffffffffffffffffffffffffffffffffffffffff169050816000806101000a81548173ffffffffffffffffffffffffffffffffffffffff021916908373ffffffffffffffffffffffffffffffffffffffff1602179055508173ffffffffffffffffffffffffffffffffffffffff168173ffffffffffffffffffffffffffffffffffffffff167f8be0079c531659141344cd1fd0a4f28419497f9722a3daafe3b4186f6b6457e060405160405180910390a35050565b600061050661050184610865565b610840565b9050808382526020820190508285602086028201111561052557600080fd5b60005b85811015610555578161053b88826105cb565b845260208401935060208301925050600181019050610528565b5050509392505050565b600061057261056d84610891565b610840565b9050808382526020820190508285602086028201111561059157600080fd5b60005b858110156105c157816105a78882610649565b845260208401935060208301925050600181019050610594565b5050509392505050565b6000813590506105da81610a84565b92915050565b600082601f8301126105f157600080fd5b81356106018482602086016104f3565b91505092915050565b600082601f83011261061b57600080fd5b813561062b84826020860161055f565b91505092915050565b60008151905061064381610a9b565b92915050565b60008135905061065881610ab2565b92915050565b60006020828403121561067057600080fd5b600061067e848285016105cb565b91505092915050565b60008060006060848603121561069c57600080fd5b60006106aa868287016105cb565b935050602084013567ffffffffffffffff8111156106c757600080fd5b6106d3868287016105e0565b925050604084013567ffffffffffffffff8111156106f057600080fd5b6106fc8682870161060a565b9150509250925092565b60006020828403121561071857600080fd5b600061072684828501610634565b91505092915050565b61073881610924565b82525050565b600061074b6026836108bd565b915061075682610a0c565b604082019050919050565b600061076e6020836108bd565b915061077982610a5b565b602082019050919050565b61078d81610962565b82525050565b60006020820190506107a8600083018461072f565b92915050565b60006060820190506107c3600083018661072f565b6107d0602083018561072f565b6107dd6040830184610784565b949350505050565b600060208201905081810360008301526107fe8161073e565b9050919050565b6000602082019050818103600083015261081e81610761565b9050919050565b600060208201905061083a6000830184610784565b92915050565b600061084a61085b565b9050610856828261096c565b919050565b6000604051905090565b600067ffffffffffffffff8211156108805761087f6109cc565b5b602082029050602081019050919050565b600067ffffffffffffffff8211156108ac576108ab6109cc565b5b602082029050602081019050919050565b600082825260208201905092915050565b60006108d982610962565b91506108e483610962565b9250827fffffffffffffffffffffffffffffffffffffffffffffffffffffffffffffffff038211156109195761091861099d565b5b828201905092915050565b600061092f82610942565b9050919050565b60008115159050919050565b600073ffffffffffffffffffffffffffffffffffffffff82169050919050565b6000819050919050565b610975826109fb565b810181811067ffffffffffffffff82111715610994576109936109cc565b5b80604052505050565b7f4e487b7100000000000000000000000000000000000000000000000000000000600052601160045260246000fd5b7f4e487b7100000000000000000000000000000000000000000000000000000000600052604160045260246000fd5b6000601f19601f8301169050919050565b7f4f776e61626c653a206e6577206f776e657220697320746865207a65726f206160008201527f6464726573730000000000000000000000000000000000000000000000000000602082015250565b7f4f776e61626c653a2063616c6c6572206973206e6f7420746865206f776e6572600082015250565b610a8d81610924565b8114610a9857600080fd5b50565b610aa481610936565b8114610aaf57600080fd5b50565b610abb81610962565b8114610ac657600080fd5b5056fea2646970667358221220c8a49fac777f556983ebe0518fa2eeeb778bd7e14b3d7af100047ee0fa3ec26964736f6c63430008040033",
  "linkReferences": {},
  "deployedLinkReferences": {}
}